:020000040800F2
:10000000B804002045010008490300084D0300081A
:1000100051030008550300085903000800000000C0
:100020000000000000000000000000005D03000868
:10003000610300080000000065030008A51800081F
:100040005F0100085F0100085F0100085F01000810
:100050005F0100085F0100085F0100085F01000800
:100060005F0100085F0100085F0100085F010008F0
:10007000ED200008C52000089D200008752000081C
:100080005F0100085F0100085F0100085F010008D0
:10009000591D00085F0100085F0100085F010008AA
:1000A0005F0100085F0100085F0100085F010008B0
:1000B0005F0100085F0100085F0100085F010008A0
:1000C0005F0100085F0100085F0100085F01000890
:1000D0005F010008152000085F010008512000089A
:1000E0005F0100085F0100085F0100085F01000870
:1000F0005F0100085F0100085F0100085F01000860
:100100005F0100085F0100085F0100085F0100084F
:100110005F0100085F0100085F0100085F0100083F
:100120005F0100085F0100085F0100085F0100082F
:10013000DFF80CD000F018F8004800478D010008E7
:10014000B80400200648804706480047FEE7FEE75F
:10015000FEE7FEE7FEE7FEE7FEE7FEE7FEE7FEE777
:100160006903000831010008064C074D06E0E0680D
:1001700040F0010394E8070098471034AC42F6D3EE
:10018000FFF7DAFF3C2400085C24000882B000205E
:10019000019000F0B1F901F08DFB01F08BFE01F050
:1001A000DFFE40F2AC02C2F200020120002101F0A9
:1001B000AFFF40F20000C2F20000026800200121FF
:1001C00001F0A6FF01F044FD01F036FCFFE740F22C
:1001D0000A00C2F20000008840F20801C2F20001E9
:1001E0000988884240F3AE80FFE701F08DFB40F2C2
:1001F0000C00C2F200000078C00748B1FFE740F2EF
:100200000C04C2F20004A068804700202070FFE7C1
:1002100040F20C00C2F200004078C00748B1FFE78E
:1002200040F20C04C2F20004E068804700206070D5
:10023000FFE740F20C00C2F200008078C00748B12E
:10024000FFE740F20C04C2F200042069804700205E
:10025000A070FFE740F20C00C2F20000C078C007B7
:1002600048B1FFE740F20C04C2F200046069804725
:100270000020E070FFE740F20C00C2F200000079BD
:10028000C00748B1FFE740F20C04C2F20004A069C5
:10029000804700202071FFE740F20C00C2F200000E
:1002A0004079C00748B1FFE740F20C04C2F20004F5
:1002B000E069804700206071FFE740F20C00C2F265
:1002C00000008079C00748B1FFE740F20C04C2F299
:1002D0000004206A80470020A071FFE740F20C0074
:1002E000C2F20000C079C00748B1FFE740F20C0439
:1002F000C2F20004606A80470020E071FFE740F22C
:100300000A00C2F20000008841F2883188420DDB09
:10031000FFE740F20A00C2F200000121018040F232
:100320000800C2F20000002101800AE040F20A0049
:10033000C2F20000008840F20801C2F20001088009
:10034000FFE7FFE743E700BF704700BFFFE7FEE7B7
:10035000FFE7FEE7FFE7FEE7FFE7FEE7704700BFC6
:10036000704700BF704700BF80B541F20000C4F283
:100370000200016841F00101016041F20401C4F290
:1003800002010A680023CFF6FF031A400A600268E0
:100390004FF6FF73CFF6F6631A400260026822F44C
:1003A00080220260086820F4FE00086041F2080024
:1003B000C4F202004FF41F01016000F009F84EF68C
:1003C0000850CEF200004FF00061016080BD00BF18
:1003D00080B500F001F880BD82B00020019000904F
:1003E00041F20000C4F20200016841F48031016072
:1003F000FFE741F20000C4F20200006800F40030A0
:100400000090019801300190FFE70099002041B968
:10041000FFE70199A1F5A060B1F5A06F18BF012019
:10042000FFE7C0070028E4D1FFE741F20000C4F273
:10043000020000688003002803D5FFE70120009038
:1004400002E000200090FFE70098012850D1FFE76C
:1004500042F20000C4F20200016841F010010160A4
:10046000016821F003010160016841F002010160AF
:1004700041F20400C4F202000168016001680160F9
:10048000016841F480610160016821F47C11016020
:10049000016841F4E811016041F20000C4F2020079
:1004A000016841F080710160FFE741F20000C4F291
:1004B000020000688001002801D4FFE7F5E741F25F
:1004C0000400C4F20200016821F003010160016828
:1004D00041F002010160FFE741F20400C4F20200B2
:1004E000006800F00C00082801D0FFE7F4E700E006
:1004F000FFE702B0704700BF81B04FF4A0600090EA
:1005000000980021C0F2FA5108434EF60C51CEF289
:100510000001086001B0704784B003900020029091
:1005200001900F2000900398C078D8B3FFE74EF6F3
:100530000C50CEF20000006800F4E060C0F5E0600E
:10054000000A02900298C0F10400019000980299FC
:10055000C840009003984078019988400290039821
:10056000807800990840029908430290029800019F
:1005700002900298039909784EF20042CEF20002EE
:1005800088540398007800F01F01012202FA01F15B
:100590004EF20012CEF2000242EAD00020F0030038
:1005A000016010E00398007800F01F01012202FAB8
:1005B00001F14EF28012CEF2000242EAD00020F0A9
:1005C00003000160FFE704B0704700BF81B06FF027
:1005D000040000900098042809D1FFE74EF21000B3
:1005E000CEF20000016841F00401016008E04EF223
:1005F0001000CEF20000016821F004010160FFE765
:1006000001B0704788B007900691002005900490D3
:1006100003900290019000900698C07800F00F00BF
:1006200005900698C078C006002806D5FFE7069812
:100630008078059908430590FFE706980078002820
:100640004FD0FFE707980068019000200390FFE774
:100650000398072841D8FFE70398012101FA00F029
:100660000290069800880299084004900498029924
:1006700088422DD1FFE703988000029002980F2155
:1006800001FA00F000900098019921EA0000019021
:100690000598029988400199084301900698C0780E
:1006A000282807D1FFE70398012101FA00F00799F4
:1006B00048610CE00698C078482807D1FFE7039806
:1006C000012101FA00F007990861FFE7FFE7FFE762
:1006D000FFE7039801300390BAE701980799086093
:1006E000FFE706980088B0F5807F51DBFFE70798A9
:1006F0004068019000200390FFE70398072843D843
:10070000FFE703980830012101FA00F002900698F3
:1007100000880299084004900498029988422ED1DA
:10072000FFE703988000029002980F2101FA00F081
:1007300000900098019921EA000001900598029923
:1007400088400199084301900698C078282808D16C
:10075000FFE703980830012101FA00F0079948618A
:10076000FFE70698C078482808D1FFE703980830CB
:10077000012101FA00F007990861FFE7FFE7FFE7B1
:10078000039801300390B8E7019807994860FFE7A4
:1007900008B0704785B0049000200390029001904B
:1007A000009041F20400C4F20200006800F00C0066
:1007B0000390039830B1FFE704280AD0FFE7082828
:1007C0000ED047E0049841F20021C0F27A010160A6
:1007D00047E0049841F20021C0F27A01016040E054
:1007E00041F20400C4F20200016801F470110291A8
:1007F000006800F4803001900298022101EB9040E3
:100800000290019848B9FFE7029840F60011C0F243
:100810003D014843049908601BE041F20400C4F222
:10082000020000688003002809D5FFE7029840F61F
:100830000011C0F23D0148430499086008E00298A5
:1008400041F20021C0F27A01484304990860FFE7B1
:10085000FFE706E0049841F20021C0F27A0101604E
:10086000FFE741F2040CC4F2020CDCF8001001F0C6
:10087000F0010391039909090391039A42F2284177
:10088000C0F600018A5C0092049A1368009823FA6B
:1008900000F05060DCF8000000F4E0600390039882
:1008A000000A03900398085C009004984268009B3B
:1008B000DA408260DCF8000000F460500390039896
:1008C000C00A03900398085C009004984168009A5D
:1008D000D140C160DCF8000000F440400390039870
:1008E000800B0390039842F23841C0F60001085C87
:1008F00000900498C168009AB1FBF2F1016105B063
:10090000704700BF82B0019001208DF803009DF870
:10091000030048B1FFE7019841F21401C4F202015B
:100920000A681043086009E0019841F21401C4F21A
:1009300002010A6822EA00000860FFE702B070477F
:1009400082B0019001208DF803009DF8030048B1AA
:10095000FFE7019841F21801C4F202010A6810434E
:10096000086009E0019841F21801C4F202010A6826
:1009700022EA00000860FFE702B0704782B00190F1
:1009800001208DF803009DF8030048B1FFE70198AE
:1009900041F21C01C4F202010A681043086009E038
:1009A000019841F21C01C4F202010A6822EA000027
:1009B0000860FFE702B0704780B58CB00B900A91D9
:1009C0000020099008900790069005900A98808969
:1009D00008B1FFE7FFE70B9805900B98008A099094
:1009E00009984CF6FF71084009900A98C088099947
:1009F0000843099009980B9908820B9880890990FF
:100A000009984EF6F311084009900A9881880289E6
:100A100011434089084309990843099009980B99A3
:100A200088810B98808A099009984FF6FF41084009
:100A300009900A98808909990843099009980B99A7
:100A400088826846FFF7A6FE059843F60001C4F2C7
:100A50000101884203D1FFE70398089002E0029861
:100A60000890FFE70B988089000400280AD5FFE76B
:100A70000898192148430A9909684900B0FBF1F028
:100A8000079009E00898192148430A9909688900E4
:100A9000B0FBF1F00790FFE7079848F21F51C5F24D
:100AA000EB11A0FB01016FF00F0000EA510009906B
:100AB000079809990909642201FB120006900B9816
:100AC00080890004002810D5FFE70698322101EB49
:100AD000C00048F21F51C5F2EB11A0FB0101C1F3A8
:100AE00042100999084309900FE00698322101EB62
:100AF000001048F21F51C5F2EB11A0FB0101C1F338
:100B00004310099908430990FFE709980B99088158
:100B10000CB080BD82B0019001208DF803009DF8DB
:100B2000030030B1FFE70198818941F400518181D0
:100B300005E00198818921F400518181FFE702B02D
:100B4000704700BF86B0059040F22440ADF8120017
:100B500001208DF811000020039002900190009078
:100B6000BDF8120040F66A11884201D1FFE7FFE7A5
:100B7000059800909DF8120040090390BDF81200FE
:100B800000F01F0002900298012101FA00F001908C
:100B90000398012804D1FFE700980C3000900CE086
:100BA0000398022804D1FFE700981030009003E07A
:100BB000009814300090FFE7FFE79DF8110030B176
:100BC000FFE7019800990A681043086006E0019861
:100BD00000990A6822EA00000860FFE706B0704743
:100BE00082B00190C020ADF8020001208DF8010014
:100BF0009DF8010038B1FFE7BDF8020001998A8A2B
:100C00001043888207E0BDF8020001998A8A22EA2F
:100C100000008882FFE702B0704700BF82B044F650
:100C20000001C4F200010191ADF80200BDF802001C
:100C30006FF35F200199888002B0704781B0009007
:100C40000098808801B0704782B044F60000C4F27A
:100C5000000001904020ADF8020000208DF8010056
:100C6000BDF80200B0F5007F01D1FFE7FFE7019872
:100C70000088BDF802100840000420B1FFE7012001
:100C80008DF8010003E000208DF80100FFE79DF8DA
:100C9000010002B0704700BF86B0059040F22440CA
:100CA000ADF8120000200390029001908DF803002F
:100CB000BDF8120040F66A11884201D1FFE7FFE754
:100CC0009DF8120040090190BDF8120000F01F00CD
:100CD00002900298012101FA00F002900198012887
:100CE00006D1FFE70598808902990840029010E03C
:100CF0000198022806D1FFE70598008A029908406A
:100D0000029005E00598808A029908400290FFE76A
:100D1000FFE79DF8130003900398012101FA00F00A
:100D2000039005980088039908400390029838B111
:100D3000FFE7039820B1FFE701208DF8030003E0EF
:100D400000208DF80300FFE79DF8030006B0704710
:100D500080B583B0029040F28000C2F200000190A2
:100D600000200090029800680090009847F6F0710B
:100D7000884300900198D0F820C0826803694169D7
:100D8000D0F818E042EA0C021A43114341EA0E017E
:100D9000C2691143426A1143806A084300990843BB
:100DA00000900098029908600198C0680299486014
:100DB0000198006802998860019840680299C860AB
:100DC00003B080BD82B001908DF803109DF8030040
:100DD00030B1FFE70198016841F00101016006E0D0
:100DE000019801684FF6FE7211400160FFE702B002
:100DF000704700BF83B002900220019001208DF85F
:100E000003009DF8030030B1FFE7019802990A68DA
:100E10001043086006E0019802990A6822EA00007F
:100E20000860FFE703B0704782B00190ADF8021090
:100E3000BDF802000199486002B0704783B002908B
:100E400000208DF8070000909DF80B00C0060028D8
:100E500007D5FFE740F20040C4F2020000680090AE
:100E600005E00020C4F2020000680090FFE700984F
:100E70000299084204D0FFE701208DF8070003E043
:100E800000208DF80700FFE79DF8070003B07047CA
:100E900083B0029000208DF8070000909DF80B00B1
:100EA000C006002807D5FFE740F20040C4F2020068
:100EB0000068009005E00020C4F202000068009085
:100EC000FFE700980299084204D0FFE701208DF85F
:100ED000070003E000208DF80700FFE79DF80700FA
:100EE00003B0704781B000909DF80300C006002851
:100EF00007D5FFE7009840F20441C4F20201086000
:100F000005E000980421C4F202010860FFE701B087
:100F1000704700BF84B046F20041C4F20001039163
:100F2000029000208DF8070000900398016821F0DE
:100F3000020101600398016841F001010160FFE7CF
:100F4000039841680020C90741B9FFE700994FF6AF
:100F5000FF72881A914218BF0120FFE7C00720B135
:100F6000FFE7009801300090EAE703984068C00767
:100F700020B9FFE700208DF80700A2E002988079F1
:100F8000012806D1FFE70398016841F08001016064
:100F900005E00398016821F080010160FFE70298F5
:100FA000C079012806D1FFE70398016841F04001AC
:100FB000016005E00398016821F040010160FFE74E
:100FC0000298007A012806D1FFE70398016841F0F2
:100FD0002001016005E00398016821F02001016013
:100FE000FFE70298407A012806D1FFE703980168DD
:100FF00041F01001016005E00398016821F0100143
:101000000160FFE70298807A012806D1FFE7039884
:10101000016841F00801016005E00398016821F0D2
:1010200008010160FFE70298C07A012806D1FFE7B6
:101030000398016841F00401016005E0039801682C
:1010400021F004010160FFE702988178C2780379FA
:1010500090F805C0890741EA026141EA034141EA8B
:101060000C510088013808430399C861039801684E
:1010700021F00101016000200090FFE70398416822
:101080000020C90741B1FFE700994FF6FF72881AA7
:10109000914218BF0120FFE7C00720B1FFE7009889
:1010A00001300090EAE703984068C00720B1FFE7ED
:1010B00000208DF8070003E001208DF80700FFE70E
:1010C000FFE704B0704700BF82B00190002000909D
:1010D0000198807A012101FA00F0009046F2006048
:1010E000C4F20000016841F001010160009846F27D
:1010F0001C61C4F200010A6822EA0000086001983D
:10110000007B10BBFFE7009846F20C61C4F20001BF
:101110000A6822EA000008600198C188428842EA11
:101120000141807A46F24062C4F2000242F8301077
:1011300001988188028842EA0141807A46F244623D
:10114000C4F2000242F83010FFE70198007B01284A
:1011500021D1FFE7009846F20C61C4F200010A6851
:101160001043086001980188428842EA0141807A70
:1011700046F24062C4F2000242F8301001988188C1
:10118000C28842EA0141807A46F24462C4F2000217
:1011900042F83010FFE70198C07A50B9FFE7009895
:1011A00046F20461C4F200010A6822EA0000086005
:1011B00008E0009846F20461C4F200010A68104396
:1011C0000860FFE70198008950B9FFE7009846F2F0
:1011D0001461C4F200010A6822EA00000860FFE717
:1011E00001980089012809D1FFE7009846F21461AF
:1011F000C4F200010A6810430860FFE70198407BD1
:10120000012809D1FFE7009846F21C61C4F20001F1
:101210000A6810430860FFE746F20060C4F200006D
:10122000016821F00101016002B0704783B046F20D
:101230000040C4F20000029040F26800C2F20000D8
:10124000019000208DF8030002988068400100287A
:1012500004D5FFE700208DF8030019E002988068AC
:101260000001002804D5FFE701208DF803000EE0FF
:1012700002988068C000002804D5FFE702208DF89E
:10128000030003E004208DF80300FFE7FFE7FFE71A
:101290009DF8030004286DD0FFE702989DF8031025
:1012A00000EB0110D0F8801101F00101C0F88011AD
:1012B0000198007A80B9FFE701980168407A40EA16
:1012C000415002999DF8032001EB0211D1F88021D1
:1012D0001043C1F8800111E001984168027A42EAA6
:1012E000C101407A084302999DF8032001EB0211E5
:1012F000D1F880211043C1F88001FFE70198817A7D
:1013000001F00F01817202989DF8031000EB0110AB
:10131000D0F8841121F00F01C0F884110198807A6F
:1013200002999DF8032001EB0211D1F884211043AA
:10133000C1F884010198D0F80B0002999DF80320B0
:1013400001EB0211C1F888010198D0F80F00029951
:101350009DF8032001EB0211C1F88C0102989DF861
:10136000031000EB0110D0F8801141F00101C0F82A
:101370008011FFE79DF8030003B0704783B046F289
:101380000041C4F2000102918DF807000020009096
:101390009DF8070030B1FFE701280BD0FFE70228D6
:1013A00011D018E0029880680321C0F20041084083
:1013B000009013E00298806840F20031C0F600010E
:1013C000084000900AE0029880680021C1F2030101
:1013D0000840009002E000200090FFE7009830B342
:1013E000FFE70121C0F20041884223D0FFE703213B
:1013F000C0F20041884226D0FFE740F20011C0F65B
:101400000001884219D0FFE740F20031C0F6000128
:1014100088421BD0FFE70021C1F2010188420FD0B2
:10142000FFE70021C1F20301884212D014E002203C
:10143000009014E00020009011E0002000900EE0E9
:10144000002000900BE00120009008E001200090B7
:1014500005E00120009002E000200090FFE79DF8E9
:10146000000003B0704700BF83B046F20040C4F2F2
:101470000000029000208DF8070040F25000C2F2F8
:101480000000009002989DF8071000EB0110D0F8C2
:10149000B00100F00400009908720098007A58B971
:1014A000FFE702989DF8071000EB0110D0F8B0019B
:1014B000400D009908600AE002989DF8071000EBC3
:1014C0000110D0F8B001C00800994860FFE7029809
:1014D0009DF8071000EB0110D0F8B00100F00200F9
:1014E0000099487202989DF8071000EB0110D0F89F
:1014F000B40100F00F000099887202989DF807105F
:1015000000EB0110D0F8B401000A0099C8740298E9
:101510009DF8071000EB0110D0F8B8010099C872CF
:1015200002989DF8071000EB0110D0F8B801000AEE
:101530000099087302989DF8071000EB0110D0F88D
:10154000B801000C0099487302989DF8071000EB51
:101550000110D0F8B801000E0099887302989DF828
:10156000071000EB0110D0F8BC010099C873029875
:101570009DF8071000EB0110D0F8BC01000A00999B
:10158000087402989DF8071000EB0110D0F8BC0118
:10159000000C0099487402989DF8071000EB0110A8
:1015A000D0F8BC01000E009988749DF8070030B98E
:1015B000FFE70298C16841F02001C16005E0029890
:1015C000016941F020010161FFE703B0704700BFEE
:1015D00083B046F20040C4F2000002900220019065
:1015E00001208DF803009DF8030030B1FFE701985A
:1015F00002994A691043486106E0019802994A69D4
:1016000022EA00004861FFE703B0704780B584B06C
:1016100046F20041C4F200010391029000208DF8CF
:101620000700039840690299084200F0AB80FFE789
:10163000029801282ED0FFE7022836D0FFE70428C1
:101640003BD0FFE7082840D0FFE7102845D0FFE750
:1016500020284AD0FFE740284FD0FFE7B0F5807F31
:1016600063D0FFE7B0F5007F67D0FFE7B0F5806F8C
:101670006BD0FFE7B0F5006F6FD0FFE7B0F5004F1C
:1016800073D0FFE7B0F5803F3FD0FFE7B0F5003FF4
:1016900043D072E00398806840F20111C0F201016A
:1016A00000F078F88DF807006BE00398C06803211C
:1016B00000F070F88DF8070063E00398C068082117
:1016C00000F068F88DF807005BE00398C06810210F
:1016D00000F060F88DF8070053E0039800690321DB
:1016E00000F058F88DF807004BE0039800690821D6
:1016F00000F050F88DF8070043E0039800691021CE
:1017000000F048F88DF807003BE003984068082196
:1017100000F040F88DF8070033E00398406810218E
:1017200000F038F88DF807002BE00398806901215C
:1017300000F030F88DF8070023E00398806902215B
:1017400000F028F88DF807001BE003988069042159
:1017500000F020F88DF8070013E0039880697021ED
:1017600000F018F88DF807000BE00398406804219A
:1017700000F010F88DF8070003E000208DF8070056
:10178000FFE703E000208DF80700FFE79DF8070062
:1017900004B080BD83B00290019100208DF8030059
:1017A00002980199084204D0FFE701208DF8030058
:1017B00003E000208DF80300FFE79DF8030003B06D
:1017C000704700BF82B046F20041C4F200010191AF
:1017D00000900098012828D0FFE704282CD0FFE7CC
:1017E00008282DD0FFE720282ED0FFE740282FD053
:1017F000FFE7B0F5807F37D0FFE7B0F5007F37D047
:10180000FFE7B0F5806F37D0FFE7B0F5006F37D056
:10181000FFE7B0F5004F3AD0FFE7B0F5803F1BD0AF
:10182000FFE7B0F5003F1BD038E0019840F201110E
:10183000C0F20101816032E001980821C1602EE010
:1018400001981021C1602AE001980821016126E079
:1018500001981021016122E00198082141601EE0F9
:101860000198102141601AE001980421416016E0BE
:1018700001980421416012E00198042141600EE0CA
:1018800001980021816101980421416007E00198DD
:101890000021816101980421416000E0FFE702B06E
:1018A000704700BF40F20A00C2F200000188013117
:1018B0000180704780B582B04FF47A70ADF80600B1
:1018C000FEF784FEBDF806004AF20021C0F24A414C
:1018D000B1FBF0F04FF0FF3101EBD0004EF21401FC
:1018E000CEF2000108604EF21800CEF20000002196
:1018F00001604EF21000CEF20000016861F00401B8
:10190000016002B080BD00BF82B040F20A00C2F2A6
:101910000000019040F20C00C2F20000009001981B
:101920000088002020B9FFE7009801210170FFE73F
:10193000019800884CF6CD41CCF6CC41A0FB0112B9
:10194000910801EB8101401A20B9FFE700980121BD
:101950004170FFE7019800884CF6CD41CCF6CC41B0
:10196000A0FB0112D10801EB8101A0EB410020B9DD
:10197000FFE7009801218170FFE70198008848F295
:101980001F51C5F2EB11A0FB01121109322201FB1C
:10199000120020B9FFE700980121C170FFE701980C
:1019A000008848F21F51C5F2EB11A0FB011251094A
:1019B000642201FB120020B9FFE7009801210171A8
:1019C000FFE70198008844F6D351C1F26201A0FB01
:1019D000011251094FF4FA7201FB120020B9FFE71E
:1019E000009801214171FFE70198008844F6D35126
:1019F000C1F26201A0FB011291094FF47A7201FB5E
:101A0000120020B9FFE7009801218171FFE70198DA
:101A1000008841F25971CDF2B711A0FB0112110BF0
:101A200041F2883201FB120020B9FFE70098012142
:101A3000C171FFE702B0704781B040F20C00C2F202
:101A400000000090009841F6A921C0F60001416213
:101A5000009841F6AD21C0F60001C161009841F641
:101A6000B121C0F600014161009841F6B521C0F6F0
:101A70000001C160009841F67531C0F600010162B5
:101A8000009841F67931C0F600018161009841F675
:101A90007D31C0F600010161009841F68131C0F648
:101AA0000001816001B07047704700BF704700BF00
:101AB000704700BF10B540F24C00C2F20000007841
:101AC000C00738B3FFE740F20000C2F20000006830
:101AD00000F076F908B1FFE7FFE740F20000C2F23C
:101AE0000000006840F28001C2F2000148601C243E
:101AF000C4F202042046FFF72BF920460821FFF725
:101B000093F900F023FC40F24C00C2F200000021E7
:101B10000170FFE740F24D00C2F200000078C007FC
:101B200038B3FFE740F20000C2F20000006800F0A6
:101B300047F908B1FFE7FFE740F20000C2F20000FA
:101B4000006840F28001C2F2000148601C24C4F227
:101B500002042046FFF7FCF820460821FFF764F94D
:101B600000F0F4FB40F24D00C2F2000000210170D1
:101B7000FFE710BD704700BF704700BF704700BF50
:101B800081B040F26400C2F200000078C007002873
:101B90005CD0FFE740F25000C2F20000006840F263
:101BA0000121884210D1FFE740F20000C2F200009C
:101BB00040F23C01C2F20001016040F24C00C2F26E
:101BC0000000012101701AE040F25000C2F2000052
:101BD000006840F20131884210D1FFE740F2000076
:101BE000C2F2000040F24401C2F20001016040F282
:101BF0004D00C2F2000001210170FFE7FFE7002065
:101C00008DF80300FFE79DF80300072817DCFFE7C6
:101C10009DF8030040F25001C2F200010144C97A6C
:101C200040F20002C2F200021268C0F10700115433
:101C3000FFE79DF8030001308DF80300E3E740F271
:101C40006400C2F2000000210170FFE701B070479C
:101C500070B58CB000268DF82F6007208DF82E000F
:101C600008208DF82D00ADF82A008DF82960042099
:101C7000FEF766FE4FF00070FEF780FE4FF48050D6
:101C8000ADF8240003208DF8260018208DF82700D9
:101C900040F60004C4F2010409AD20462946FEF7CF
:101CA000B1FC4FF40060ADF8240048208DF8270007
:101CB00020462946FEF7A6FC8DF81E608DF81F60B1
:101CC0008DF8206001248DF821408DF822608DF878
:101CD00023609DF829008DF81A009DF82F008DF8DB
:101CE0001B009DF82D008DF81C009DF82E008DF82E
:101CF0001D00BDF82A00ADF8180006A8FFF70AF984
:101D00008DF812608DF813608DF814604FF6FF7037
:101D1000ADF80800ADF80C0044F22000ADF80A0060
:101D20004DF6FF70ADF80E00ADF810608DF815405F
:101D300002A8FFF7C9F9FFF74BFC14208DF8040047
:101D400002208DF805008DF806608DF8074001A887
:101D5000FEF7E2FB0CB070BD80B50220FFF756FC29
:101D600001280CD1FFE70220FFF72CFDFFF77CFBD9
:101D700040F26400C2F2000001210170FFE704207C
:101D8000FFF744FC01280CD1FFE70420FFF71AFD00
:101D9000FFF76AFB40F26400C2F20000012101700B
:101DA000FFE74FF40040FFF731FC012807D1FFE7C0
:101DB0004FF40040FFF706FDFFF74AFFFFE780BD45
:101DC00080B584B0029008208DF807000020ADF89F
:101DD000040040F26801C2F2000140F201120A6000
:101DE0004860087248729DF807208A72ADF80400B6
:101DF000FFE7BDF804009DF80710884211DAFFE7FD
:101E00000298BDF80410405C40F26802C2F2000281
:101E10001144C872FFE7BDF804000130ADF80400BA
:101E2000E7E7FFF703FA8DF80600FFE79DF80600E5
:101E3000FFF7A4FA002148B9FFE7BDF8040040F617
:101E4000FF7200219042B8BF0121FFE7C80730B1FF
:101E5000FFE7BDF804000130ADF80400E6E7BDF887
:101E6000040040F6FF71884204DBFFE701208DF893
:101E70000F0003E000208DF80F00FFE79DF80F0032
:101E800004B080BD80B582B001900091FFE7FEF7FD
:101E9000DBFE08B9FFE7FAE79DF80400FEF7BEFE97
:101EA000FFE7FEF7D1FE08B9FFE7FAE7019802B0B5
:101EB00080BD00BFB0B588B04FF4E130079044F268
:101EC0000400FEF73DFD4FF40070ADF8180003204C
:101ED0008DF81A0018208DF81B0040F60004C4F29B
:101EE000010406AD20462946FEF78CFB25208DF81F
:101EF000040002208DF805008DF8060001208DF801
:101F0000070001A8FEF708FB4FF48060ADF8180049
:101F100004208DF81B0020462946FEF773FB079826
:101F200002900020ADF80C00ADF80E00ADF81000E6
:101F3000ADF814000C20ADF8120043F60004C4F212
:101F4000010402A92046FEF737FD2046FEF7FAFD00
:101F50002046FEF745FE2046FEF7DCFD08B0B0BD8A
:101F600070B588B048F27020C0F2030007900820D6
:101F7000FEF7E6FC4FF48020FEF700FD4FF4806092
:101F8000ADF8180001268DF81A6018208DF81B0096
:101F900040F60044C4F2010406AD20462946FEF78F
:101FA00031FB4FF40060ADF8180004208DF81B00E1
:101FB00020462946FEF726FB27208DF80400022044
:101FC0008DF805008DF806008DF8076001A8FEF772
:101FD000A3FA079802900020ADF80C00ADF80E00AF
:101FE000ADF81000ADF814000C20ADF8120044F666
:101FF0000004C4F2000402A92046FEF7DDFC2046DE
:10200000FEF7EEFD2046FEF79DFD2046FEF782FD21
:1020100008B070BD80B543F60000C4F20100FEF7C1
:102020003BFE98B1FFE743F60000C4F20100FEF763
:1020300005FE40F27C00C2F2000001210170582030
:10204000C4F202000021FEF7BDFEFFE780BD00BF25
:1020500080B544F60000C4F20000FEF71DFE38B162
:10206000FFE744F60000C4F20000FEF7E7FDFFE7DB
:1020700080BD00BF80B54FF40030FEF7DFFE0128C1
:102080000BD1FFE75820C4F202000021FEF79AFEB0
:102090004FF40030FEF726FFFFE780BD80B54FF418
:1020A0000050FEF7F5FE01280BD1FFE74420C4F2F3
:1020B00002000021FEF786FE4FF40050FEF712FFEB
:1020C000FFE780BD80B54FF40070FEF7B7FE012832
:1020D0000BD1FFE73020C4F202000021FEF772FEB0
:1020E0004FF40070FEF7FEFEFFE780BD80B52020B4
:1020F000FEF7CEFE01280AD1FFE71C20C4F2020041
:102100000021FEF75FFE2020FEF7ECFEFFE780BD1A
:1021100080B586B044F60003C4F2000305938DF841
:10212000130003208DF812008DF81110039208207F
:10213000ADF80A00059843F60001C4F20101884297
:1021400010D0FFE7059844F20041C4F20001884234
:1021500008D0FFE7059844F60001C4F20001884268
:1021600004D1FFE70120FEF7CDFB0CE0059843F614
:102170000001C4F20101884204D1FFE70220FEF70A
:10218000C1FBFFE7FFE7059843F60001C4F2010138
:1021900088421BD1FFE79DF8130040B9FFE70E20EE
:1021A0008DF800004420C4F2020001900DE09DF87B
:1021B0001300012808D1FFE70F208DF800005820F8
:1021C000C4F202000190FFE7FFE76DE0059844F2DA
:1021D0000041C4F2000188421BD1FFE79DF81300C3
:1021E00040B9FFE711208DF800008020C4F2020002
:1021F00001900DE09DF81300012808D1FFE71020A1
:102200008DF800006C20C4F202000190FFE7FFE7A8
:1022100049E0059844F60001C4F2000188421BD150
:10222000FFE79DF8130040B9FFE70C208DF8000090
:102230001C20C4F2020001900DE09DF8130001285B
:1022400008D1FFE70D208DF800003020C4F2020015
:102250000190FFE7FFE725E0059844F60041C4F24E
:10226000000188421DD1FFE79DF8130048B9FFE740
:102270003B208DF8000040F25840C4F2020001906B
:102280000EE09DF81300012809D1FFE73A208DF8F0
:10229000000040F23040C4F202000190FFE7FFE787
:1022A000FFE7FFE7FFE7FFE79DF812008DF8010069
:1022B0009DF811008DF8020001208DF8030068469A
:1022C000FEF72AF90198FEF795FD0598043040F2D3
:1022D0008001C2F200010860039848600020886015
:1022E000BDF80A20CA60086180224A618861C8611D
:1022F00020220A624FF480524A6288629DF81300DD
:10230000012807D1FFE740F28000C2F2000000215F
:10231000816006E040F28000C2F20000102181607E
:10232000FFE70198FEF714FD9DF81300012805D181
:10233000FFE701980121FEF745FD04E00198002127
:10234000FEF740FDFFE706B080BD00BF80B584B05A
:1023500044F60000C4F2000003901C20C4F2020006
:10236000029001208DF807000820ADF804000398C2
:1023700043F60001C4F20101884205D1FFE758206D
:10238000C4F2020002902AE0039844F20041C4F231
:102390000001884205D1FFE78020C4F202000290CC
:1023A0001CE0039844F60001C4F20001884205D104
:1023B000FFE71C20C4F2020002900EE0039844F6EE
:1023C0000041C4F20001884206D1FFE740F25840C4
:1023D000C4F202000290FFE7FFE7FFE7FFE79DF886
:1023E0000700C00750B1FFE70298BDF80410FEF7E0
:1023F0001BFD02980121FEF7E5FC04E00298002194
:10240000FEF7E0FCFFE704B080BD02E008C8121F41
:1024100008C1002AFAD170477047002001E001C1CD
:10242000121F002AFBD170470000000001020304C4
:1024300001020304060708090204060860240008D4
:1024400000000020080000000A240008682400089A
:1024500008000020B00400001A240008000000005A
:08246000340000200000000020
:0400000508000131BD
:00000001FF
