:020000040800F2
:10000000F804002045010008490200084D020008DC
:1000100051020008550200085902000800000000C3
:100020000000000000000000000000005D02000869
:10003000610200080000000065020008DD310008D0
:100040005F0100085F0100085F0100085F01000810
:100050005F0100085F0100085F0100085F01000800
:100060005F0100085F0100085F0100085F010008F0
:100070006D3E0008453E00081D3E0008F53D0008A5
:100080005F0100085F0100085F0100085F010008D0
:10009000C13A00085F0100085F0100085F01000825
:1000A0005F0100085F0100085F0100085F010008B0
:1000B0005F0100085F0100085F0100085F010008A0
:1000C0005F0100085F0100085F0100085F01000890
:1000D0005F010008953D00085F010008D13D000860
:1000E0005F0100085F0100085F0100085F01000870
:1000F0005F0100085F0100085F0100085F01000860
:100100005F0100085F0100085F0100085F0100084F
:100110005F0100085F0100085F0100085F0100083F
:100120005F0100085F0100085F0100085F0100082F
:10013000DFF80CD000F018F8004800478D010008E7
:10014000F80400200648804706480047FEE7FEE71F
:10015000FEE7FEE7FEE7FEE7FEE7FEE7FEE7FEE777
:100160006902000831010008064C074D06E0E0680E
:1001700040F0010394E8070098471034AC42F6D3EE
:10018000FFF7DAFFA0420008C042000882B000205A
:10019000019000F031F903F029F803F04DFD03F070
:1001A000A1FD40F2F002C2F200020120002103F0A2
:1001B0006FFE40F20000C2F2000002680020012140
:1001C00003F066FE03F0F6FB03F086FAFFE740F269
:1001D0000A00C2F20000008840F20801C2F20001E9
:1001E0000988884229DDFFE703F0DEF903F028F8EB
:1001F00003F018F940F20A00C2F20000008841F250
:10020000883188420DDBFFE740F20A00C2F20000AD
:100210000121018040F20800C2F2000000210180AB
:100220000AE040F20A00C2F20000008840F2080131
:10023000C2F200010880FFE7FFE7C8E782B0019043
:100240000091FFE7FEE700BF704700BFFFE7FEE752
:10025000FFE7FEE7FFE7FEE7FFE7FEE7704700BFC7
:10026000704700BF704700BF80B541F20000C4F284
:100270000200016841F00101016041F20401C4F291
:1002800002010A680023CFF6FF031A400A600268E1
:100290004FF6FF73CFF6F6631A400260026822F44D
:1002A00080220260086820F4FE00086041F2080025
:1002B000C4F202004FF41F01016000F009F84EF68D
:1002C0000850CEF200004FF00061016080BD00BF19
:1002D00080B500F001F880BD82B000200190009050
:1002E00041F20000C4F20200016841F48031016073
:1002F000FFE741F20000C4F20200006800F40030A1
:100300000090019801300190FFE70099002041B969
:10031000FFE70199A1F5A060B1F5A06F18BF01201A
:10032000FFE7C0070028E4D1FFE741F20000C4F274
:10033000020000688003002803D5FFE70120009039
:1003400002E000200090FFE70098012850D1FFE76D
:1003500042F20000C4F20200016841F010010160A5
:10036000016821F003010160016841F002010160B0
:1003700041F20400C4F202000168016001680160FA
:10038000016841F480610160016821F47C11016021
:10039000016841F4E811016041F20000C4F202007A
:1003A000016841F080710160FFE741F20000C4F292
:1003B000020000688001002801D4FFE7F5E741F260
:1003C0000400C4F20200016821F003010160016829
:1003D00041F002010160FFE741F20400C4F20200B3
:1003E000006800F00C00082801D0FFE7F4E700E007
:1003F000FFE702B0704700BF82B04FF4A0600190E9
:100400000198B0F5E06F14D0FFE70198B0F5C06F28
:100410000FD0FFE70198B0F5A06F0AD0FFE7019871
:10042000B0F5806F05D0FFE70198B0F5407F01D1AE
:10043000FFE706E044F20A20C0F600006321FFF760
:10044000FDFE01980021C0F2FA5108434EF60C510E
:10045000CEF20001086002B0704700BF84B0039084
:100460000020029001900F2000900398C07828B1DE
:10047000FFE70398C078012801D1FFE706E044F2C6
:100480000A20C0F600007521FFF7D8FE03984078D7
:100490000F2801DCFFE706E044F20A20C0F6000066
:1004A0007621FFF7CBFE039880780F2801DCFFE769
:1004B00006E044F20A20C0F600007721FFF7BEFEF6
:1004C0000398C078D8B3FFE74EF60C50CEF2000088
:1004D000006800F4E060C0F5E060000A0290029855
:1004E000C0F10400019000980299C8400090039860
:1004F00040780199884002900398807800990840DC
:100500000299084302900298000102900298039910
:1005100009784EF20042CEF2000288540398007827
:1005200000F01F01012202FA01F14EF20012CEF298
:10053000000242EAD00020F00300016010E00398BE
:10054000007800F01F01012202FA01F14EF2801240
:10055000CEF2000242EAD00020F003000160FFE783
:1005600004B0704782B06FF0040001900198042835
:1005700004D0FFE70198053008B9FFE706E044F230
:100580000A20C0F60000CA21FFF758FE019804288F
:1005900009D1FFE74EF21000CEF20000016841F0F1
:1005A0000401016008E04EF21000CEF20000016884
:1005B00021F004010160FFE702B0704788B00790A6
:1005C0000691002005900490039002900190009005
:1005D000079840F60001C4F20101884230D0FFE7DD
:1005E000079840F60041C4F20101884228D0FFE795
:1005F000079841F20001C4F20101884220D0FFE7D0
:10060000079841F20041C4F20101884218D0FFE787
:10061000079841F60001C4F20101884210D0FFE7BB
:10062000079841F60041C4F20101884208D0FFE773
:10063000079842F20001C4F20101884201D1FFE7AC
:1006400006E044F24F20C0F60000B221FFF7F6FDAD
:100650000698C07818B3FFE70698C07804281ED023
:10066000FFE70698C078282819D0FFE70698C078D9
:10067000482814D0FFE70698C07814280FD0FFE769
:100680000698C07810280AD0FFE70698C0781C2882
:1006900005D0FFE70698C078182801D1FFE706E0EB
:1006A00044F24F20C0F60000B321FFF7C7FDFFE77B
:1006B0000698008808B1FFE706E044F24F20C0F634
:1006C0000000B421FFF7BAFD0698C07800F00F00D3
:1006D00005900698C078C00600281DD5FFE706984B
:1006E000807801280AD0FFE706988078022805D094
:1006F000FFE706988078032801D1FFE706E044F27F
:100700004F20C0F60000BB21FFF798FD06988078C7
:10071000059908430590FFE70698007800284FD018
:10072000FFE707980068019000200390FFE7039817
:10073000072841D8FFE70398012101FA00F0029051
:10074000069800880299084004900498029988420B
:100750002DD1FFE703988000029002980F2101FA43
:1007600000F000900098019921EA0000019005989E
:10077000029988400199084301900698C07828287A
:1007800007D1FFE70398012101FA00F007994861BA
:100790000CE00698C078482807D1FFE703980121AC
:1007A00001FA00F007990861FFE7FFE7FFE7FFE7BD
:1007B000039801300390BAE7019807990860FFE7B2
:1007C00006980088B0F5807F51DBFFE70798406806
:1007D000019000200390FFE70398072843D8FFE724
:1007E00003980830012101FA00F002900698008871
:1007F0000299084004900498029988422ED1FFE79C
:1008000003988000029002980F2101FA00F00090F6
:100810000098019921EA000001900598029988400A
:100820000199084301900698C078282808D1FFE76D
:1008300003980830012101FA00F007994861FFE7A9
:100840000698C078482808D1FFE7039808300121AE
:1008500001FA00F007990861FFE7FFE7FFE7039857
:1008600001300390B8E7019807994860FFE708B0A6
:10087000704700BF85B00490002003900290019063
:10088000009041F20400C4F20200006800F00C0085
:100890000390039830B1FFE704280AD0FFE7082847
:1008A0000ED047E0049841F20021C0F27A010160C5
:1008B00047E0049841F20021C0F27A01016040E073
:1008C00041F20400C4F20200016801F470110291C7
:1008D000006800F4803001900298022101EB904002
:1008E0000290019848B9FFE7029840F60011C0F263
:1008F0003D014843049908601BE041F20400C4F242
:10090000020000688003002809D5FFE7029840F63E
:100910000011C0F23D0148430499086008E00298C4
:1009200041F20021C0F27A01484304990860FFE7D0
:10093000FFE706E0049841F20021C0F27A0101606D
:10094000FFE741F2040CC4F2020CDCF8001001F0E5
:10095000F0010391039909090391039A44F2A81144
:10096000C0F600018A5C0092049A1368009823FA8A
:1009700000F05060DCF8000000F4E06003900398A1
:10098000000A03900398085C009004984268009B5A
:10099000DA408260DCF8000000F4605003900398B5
:1009A000C00A03900398085C009004984168009A7C
:1009B000D140C160DCF8000000F44040039003988F
:1009C000800B0390039844F2B811C0F60001085C54
:1009D00000900498C168009AB1FBF2F1016105B082
:1009E000704700BF82B0019001208DF8030001988C
:1009F0004FF6A821CFF6FF71084204D1FFE7019816
:100A000008B1FFE707E044F2E310C0F6000040F24F
:100A10002B41FFF713FC9DF8030028B1FFE79DF879
:100A20000300012801D1FFE707E044F2E310C0F61C
:100A3000000040F22C41FFF701FC9DF8030048B193
:100A4000FFE7019841F21401C4F202010A68104361
:100A5000086009E0019841F21401C4F202010A6839
:100A600022EA00000860FFE702B0704782B0019000
:100A700001208DF8030001980221CFF6C0710842D1
:100A800004D1FFE7019808B1FFE707E044F2E31063
:100A9000C0F6000040F24A41FFF7D0FB9DF803008A
:100AA00028B1FFE79DF80300012801D1FFE707E027
:100AB00044F2E310C0F6000040F24B41FFF7BEFBEA
:100AC0009DF8030048B1FFE7019841F21801C4F214
:100AD00002010A681043086009E0019841F2180118
:100AE000C4F202010A6822EA00000860FFE702B0CF
:100AF000704700BF82B0019001208DF8030001987B
:100B000043F20061C8F20111084204D1FFE70198E5
:100B100008B1FFE707E044F2E310C0F6000040F23E
:100B20006941FFF78BFB9DF8030028B1FFE79DF8B3
:100B30000300012801D1FFE707E044F2E310C0F60B
:100B4000000040F26A41FFF779FB9DF8030048B1CD
:100B5000FFE7019841F21C01C4F202010A68104348
:100B6000086009E0019841F21C01C4F202010A6820
:100B700022EA00000860FFE702B0704780B58CB041
:100B80000B900A910020099008900790069005901C
:100B90000B9843F60001C4F20101884220D0FFE720
:100BA0000B9844F20041C4F20001884218D0FFE7DC
:100BB0000B9844F60001C4F20001884210D0FFE710
:100BC0000B9844F60041C4F20001884208D0FFE7C8
:100BD0000B9845F20001C4F20001884201D1FFE701
:100BE00006E044F27720C0F60000B821FFF726FBAC
:100BF0000A98006850B1FFE70A9800684AF6202179
:100C0000C0F24401884201D8FFE706E044F27720B1
:100C1000C0F60000B921FFF711FB0A98808830B1B7
:100C2000FFE70A988088B0F5805F01D1FFE706E012
:100C300044F27720C0F60000BA21FFF7FFFA0A98C5
:100C4000C08890B1FFE70A98C088B0F5805F0CD0EB
:100C5000FFE70A98C088B0F5005F06D0FFE70A9862
:100C6000C088B0F5405F01D1FFE706E044F277208D
:100C7000C0F60000BB21FFF7E1FA0A98008960B1D5
:100C8000FFE70A980089B0F5806F06D0FFE70A9861
:100C90000089B0F5C06F01D1FFE706E044F277208C
:100CA000C0F60000BC21FFF7C9FA0A9840896FF02E
:100CB0000C01084205D1FFE70A98408908B1FFE717
:100CC00006E044F27720C0F60000BD21FFF7B6FA37
:100CD0000A98808990B1FFE70A988089B0F5807FF3
:100CE0000CD0FFE70A988089B0F5007F06D0FFE7B7
:100CF0000A988089B0F5407F01D1FFE706E044F211
:100D00007720C0F60000BE21FFF798FA0A98808984
:100D100008B3FFE70B9843F60001C4F201018842D3
:100D200010D0FFE70B9844F20041C4F20001884262
:100D300008D0FFE70B9844F60001C4F20001884296
:100D400001D1FFE706E044F27720C0F60000C2219F
:100D5000FFF774FAFFE70B9805900B98008A09904B
:100D600009984CF6FF71084009900A98C0880999C3
:100D70000843099009980B9908820B98808909907B
:100D800009984EF6F311084009900A988188028963
:100D900011434089084309990843099009980B9920
:100DA00088810B98808A099009984FF6FF41084086
:100DB00009900A98808909990843099009980B9924
:100DC00088826846FFF756FD059843F60001C4F295
:100DD0000101884203D1FFE70398089002E00298DE
:100DE0000890FFE70B988089000400280AD5FFE7E8
:100DF0000898192148430A9909684900B0FBF1F0A5
:100E0000079009E00898192148430A990968890060
:100E1000B0FBF1F00790FFE7079848F21F51C5F2C9
:100E2000EB11A0FB01016FF00F0000EA51000990E7
:100E3000079809990909642201FB120006900B9892
:100E400080890004002810D5FFE70698322101EBC5
:100E5000C00048F21F51C5F2EB11A0FB0101C1F324
:100E600042100999084309900FE00698322101EBDE
:100E7000001048F21F51C5F2EB11A0FB0101C1F3B4
:100E80004310099908430990FFE709980B990881D5
:100E90000CB080BD82B0019001208DF80300019854
:100EA00043F60001C4F20101884220D0FFE7019817
:100EB00044F20041C4F20001884218D0FFE70198D3
:100EC00044F60001C4F20001884210D0FFE7019807
:100ED00044F60041C4F20001884208D0FFE70198BF
:100EE00045F20001C4F20001884201D1FFE707E0AA
:100EF00044F27720C0F600004FF4B171FFF79EF97D
:100F00009DF8030028B1FFE79DF80300012801D1F7
:100F1000FFE707E044F27720C0F6000040F26311DB
:100F2000FFF78CF99DF8030030B1FFE70198818944
:100F300041F40051818105E00198818921F400513B
:100F40008181FFE702B0704786B0059040F22440EF
:100F5000ADF8120001208DF81100002003900290DE
:100F600001900090059843F60001C4F20101884207
:100F700020D0FFE7059844F20041C4F20001884206
:100F800018D0FFE7059844F60001C4F2000188423A
:100F900010D0FFE7059844F60041C4F200018842F2
:100FA00008D0FFE7059845F20001C4F2000188422D
:100FB00001D1FFE707E044F27720C0F6000040F2DD
:100FC0008911FFF73BF9BDF8120028282FD0FFE761
:100FD000BDF8120040F22771884228D0FFE7BDF823
:100FE000120040F22661884221D0FFE7BDF81200CE
:100FF00040F2255188421AD0FFE7BDF8120040F2B6
:101000002441884213D0FFE7BDF8120040F64601A4
:1010100088420CD0FFE7BDF8120040F66A11884202
:1010200005D0FFE7BDF81200602801D1FFE707E017
:1010300044F27720C0F600004FF4C571FFF7FEF8C8
:101040009DF8110028B1FFE79DF81100012801D19A
:10105000FFE707E044F27720C0F6000040F28B1172
:10106000FFF7ECF8BDF8120040F66A11884222D171
:10107000FFE7059843F60001C4F20101884210D051
:10108000FFE7059844F20041C4F20001884208D00D
:10109000FFE7059844F60001C4F20001884201D13F
:1010A000FFE707E044F27720C0F6000040F28F111E
:1010B000FFF7C4F8FFE7059800909DF8120040097B
:1010C0000390BDF8120000F01F0002900298012169
:1010D00001FA00F001900398012804D1FFE700987D
:1010E0000C3000900CE00398022804D1FFE7009830
:1010F0001030009003E0009814300090FFE7FFE705
:101100009DF8110030B1FFE7019800990A6810437B
:10111000086006E0019800990A6822EA0000086069
:10112000FFE706B0704700BF82B00190C020ADF865
:10113000020001208DF80100019843F60001C4F27D
:101140000101884220D0FFE7019844F20041C4F237
:101150000001884218D0FFE7019844F60001C4F26C
:101160000001884210D0FFE7019844F60041C4F224
:101170000001884208D0FFE7019845F20001C4F25F
:101180000001884201D1FFE707E044F27720C0F672
:10119000000040F2C311FFF751F8BDF802006FF0F4
:1011A000C001084205D1FFE7BDF8020008B1FFE722
:1011B00007E044F27720C0F600004FF4E271FFF739
:1011C0003DF89DF8010028B1FFE79DF801000128D6
:1011D00001D1FFE707E044F27720C0F6000040F2BB
:1011E000C511FFF72BF89DF8010038B1FFE7BDF8F6
:1011F000020001998A8A1043888207E0BDF8020044
:1012000001998A8A22EA00008882FFE702B07047CB
:1012100082B044F60001C4F200010191ADF8020071
:10122000019843F60001C4F20101884220D0FFE793
:10123000019844F20041C4F20001884218D0FFE74F
:10124000019844F60001C4F20001884210D0FFE783
:10125000019844F60041C4F20001884208D0FFE73B
:10126000019845F20001C4F20001884201D1FFE774
:1012700007E044F27720C0F6000040F25321FEF769
:10128000DDFFBDF80200B0F5007F01DAFFE707E0FF
:1012900044F27720C0F600004FF41571FEF7CEFF40
:1012A000BDF802006FF35F200199888002B070479B
:1012B00082B00190019843F60001C4F20101884216
:1012C00020D0FFE7019844F20041C4F200018842B7
:1012D00018D0FFE7019844F60001C4F200018842EB
:1012E00010D0FFE7019844F60041C4F200018842A3
:1012F00008D0FFE7019845F20001C4F200018842DE
:1013000001D1FFE707E044F27720C0F600004FF478
:101310001971FEF793FF0198808802B0704700BFF3
:1013200082B044F60000C4F2000001904020ADF805
:10133000020000208DF80100019843F60001C4F27C
:101340000101884220D0FFE7019844F20041C4F235
:101350000001884218D0FFE7019844F60001C4F26A
:101360000001884210D0FFE7019844F60041C4F222
:101370000001884208D0FFE7019845F20001C4F25D
:101380000001884201D1FFE707E044F27720C0F670
:10139000000040F26E31FEF751FFBDF80200012857
:1013A0002FD0FFE7BDF8020080282AD0FFE7BDF864
:1013B0000200402825D0FFE7BDF80200202820D0F9
:1013C000FFE7BDF8020010281BD0FFE7BDF80200C0
:1013D000B0F5807F15D0FFE7BDF80200B0F5007FC3
:1013E0000FD0FFE7BDF8020008280AD0FFE7BDF8DC
:1013F0000200042805D0FFE7BDF80200022801D151
:10140000FFE707E044F27720C0F6000040F26F31BA
:10141000FEF714FFBDF80200B0F5007F22D1FFE710
:10142000019843F60001C4F20101884210D0FFE7A1
:10143000019844F20041C4F20001884208D0FFE75D
:10144000019844F60001C4F20001884201D1FFE78F
:1014500007E044F27720C0F6000040F27331FEF757
:10146000EDFEFFE701980088BDF802100840000477
:1014700020B1FFE701208DF8010003E000208DF886
:101480000100FFE79DF8010002B0704786B00590AB
:1014900040F22440ADF81200002003900290019029
:1014A0008DF80300059843F60001C4F2010188425B
:1014B00020D0FFE7059844F20041C4F200018842C1
:1014C00018D0FFE7059844F60001C4F200018842F5
:1014D00010D0FFE7059844F60041C4F200018842AD
:1014E00008D0FFE7059845F20001C4F200018842E8
:1014F00001D1FFE707E044F27720C0F6000040F298
:10150000C131FEF79BFEBDF8120028283CD0FFE752
:10151000BDF8120040F22771884235D0FFE7BDF8D0
:10152000120040F2266188422ED0FFE7BDF812007B
:1015300040F22551884227D0FFE7BDF8120040F263
:101540002441884220D0FFE7BDF8120040F6460152
:10155000884219D0FFE7BDF8120040F66A118842B0
:1015600012D0FFE7BDF81200B0F5587F0CD0FFE7AE
:10157000BDF81200B0F5187F06D0FFE7BDF81200E5
:10158000B0F5B07F01D1FFE707E044F27720C0F665
:10159000000040F2C231FEF751FEBDF8120040F6E5
:1015A0006A11884222D1FFE7059843F60001C4F290
:1015B0000101884210D0FFE7059844F20041C4F2CF
:1015C0000001884208D0FFE7059844F60001C4F204
:1015D0000001884201D1FFE707E044F27720C0F61E
:1015E000000040F2C631FEF729FEFFE79DF8120029
:1015F00040090190BDF8120000F01F00029002980F
:10160000012101FA00F002900198012806D1FFE7BC
:101610000598808902990840029010E001980228FC
:1016200006D1FFE70598008A02990840029005E07C
:101630000598808A029908400290FFE7FFE79DF82D
:10164000130003900398012101FA00F0039005981C
:101650000088039908400390029838B1FFE7039887
:1016600020B1FFE701208DF8030003E000208DF892
:101670000300FFE79DF8030006B0704780B584B013
:10168000039040F2C400C2F20000029000200190DA
:1016900003980821C4F20201884252D0FFE7039860
:1016A0001C21C4F2020188424BD0FFE7039830218D
:1016B000C4F20201884244D0FFE703984421C4F2F7
:1016C000020188423DD0FFE703985821C4F202018D
:1016D000884236D0FFE703986C21C4F202018842A9
:1016E0002FD0FFE703988021C4F20201884228D05E
:1016F000FFE7039840F20841C4F20201884220D07B
:10170000FFE7039840F21C41C4F20201884218D05E
:10171000FFE7039840F23041C4F20201884210D042
:10172000FFE7039840F24441C4F20201884208D026
:10173000FFE7039840F25841C4F20201884201D108
:10174000FFE706E044F2BC10C0F60000CF21FEF730
:1017500075FD02988068102804D0FFE70298806821
:1017600008B9FFE706E044F2BC10C0F60000D02143
:10177000FEF764FD0298C06828B1FFE70298C089AF
:1017800008B9FFE706E044F2BC10C0F60000D12122
:10179000FEF754FD02980069402804D0FFE7029844
:1017A000006908B9FFE706E044F2BC10C0F600008B
:1017B000D221FEF743FD02984069802804D0FFE75C
:1017C0000298406908B9FFE706E044F2BC10C0F691
:1017D0000000D321FEF732FD0298806960B1FFE777
:1017E00002988069B0F5807F06D0FFE70298806993
:1017F000B0F5007F01D1FFE706E044F2BC10C0F66F
:101800000000D421FEF71AFD0298C06960B1FFE71D
:101810000298C069B0F5806F06D0FFE70298C069F2
:10182000B0F5006F01D1FFE706E044F2BC10C0F64E
:101830000000D521FEF702FD0298006A202804D09E
:10184000FFE70298006A08B9FFE706E044F2BC101F
:10185000C0F60000D621FEF7F1FC0298406AB0F510
:10186000405F10D0FFE70298406AB0F5005F0AD0F1
:10187000FFE70298406AB0F5805F04D0FFE7029866
:10188000406A08B9FFE706E044F2BC10C0F6000069
:10189000D721FEF7D3FC0298806AB0F5804F04D0C0
:1018A000FFE70298806A08B9FFE706E044F2BC103F
:1018B000C0F60000D821FEF7C1FC03980068019033
:1018C000019847F6F071884301900298D0F820C043
:1018D000826803694169D0F818E042EA0C021A43B1
:1018E000114341EA0E01C2691143426A1143806A01
:1018F00008430199084301900198039908600298F0
:10190000C06803994860029800680399886002984B
:1019100040680399C86004B080BD00BF82B00190E8
:101920008DF8031001980821C4F20201884252D0B8
:10193000FFE701981C21C4F2020188424BD0FFE767
:1019400001983021C4F20201884244D0FFE7019897
:101950004421C4F2020188423DD0FFE7019858219A
:10196000C4F20201884236D0FFE701986C21C4F22C
:10197000020188422FD0FFE701988021C4F20201C2
:10198000884228D0FFE7019840F20841C4F20201E2
:10199000884220D0FFE7019840F21C41C4F20201C6
:1019A000884218D0FFE7019840F23041C4F20201AA
:1019B000884210D0FFE7019840F24441C4F202018E
:1019C000884208D0FFE7019840F25841C4F2020172
:1019D000884201D1FFE707E044F2BC10C0F60000E6
:1019E00040F22911FEF72AFC9DF8030028B1FFE719
:1019F0009DF80300012801D1FFE707E044F2BC1085
:101A0000C0F600004FF49571FEF718FC9DF8030036
:101A100030B1FFE70198016841F00101016006E083
:101A2000019801684FF6FE7211400160FFE702B0B5
:101A3000704700BF84B003900220029001208DF80F
:101A4000070003980821C4F20201884252D0FFE740
:101A500003981C21C4F2020188424BD0FFE703988F
:101A60003021C4F20201884244D0FFE703984421A8
:101A7000C4F2020188423DD0FFE703985821C4F226
:101A80000201884236D0FFE703986C21C4F20201BC
:101A900088422FD0FFE703988021C4F202018842D8
:101AA00028D0FFE7039840F20841C4F202018842BF
:101AB00020D0FFE7039840F21C41C4F202018842A3
:101AC00018D0FFE7039840F23041C4F20201884287
:101AD00010D0FFE7039840F24441C4F2020188426B
:101AE00008D0FFE7039840F25841C4F2020188424F
:101AF00001D1FFE707E044F2BC10C0F6000040F25D
:101B00004911FEF79BFB02986FF00E01084204D1C9
:101B1000FFE7029808B1FFE707E044F2BC10C0F607
:101B200000004FF4A571FEF789FB9DF8070028B16E
:101B3000FFE79DF80700012801D1FFE707E044F225
:101B4000BC10C0F6000040F24B11FEF777FB9DF889
:101B5000070030B1FFE7029803990A681043086054
:101B600006E0029803990A6822EA00000860FFE78D
:101B700004B0704782B00190ADF8021001980821BE
:101B8000C4F20201884252D0FFE701981C21C4F23E
:101B9000020188424BD0FFE701983021C4F20201D4
:101BA000884244D0FFE701984421C4F202018842F0
:101BB0003DD0FFE701985821C4F20201884236D097
:101BC000FFE701986C21C4F2020188422FD0FFE7A1
:101BD00001988021C4F20201884228D0FFE70198D1
:101BE00040F20841C4F20201884220D0FFE7019888
:101BF00040F21C41C4F20201884218D0FFE701986C
:101C000040F23041C4F20201884210D0FFE701984F
:101C100040F24441C4F20201884208D0FFE7019833
:101C200040F25841C4F20201884201D1FFE707E0C7
:101C300044F2BC10C0F600004FF4B271FEF7FEFA99
:101C4000BDF802000199486002B0704784B003906B
:101C500000208DF80B0001900398012800F02F81DF
:101C6000FFE70398022800F02A81FFE70398042881
:101C700000F02581FFE70398082800F02081FFE7A6
:101C80000398102800F01B81FFE70398202800F03C
:101C90001681FFE70398402800F01181FFE70398C1
:101CA000802800F00C81FFE70398B0F5807F00F0FA
:101CB0000681FFE70398B0F5007F00F00081FFE7A1
:101CC0000398B0F5806F00F0FA80FFE70398B0F555
:101CD000006F00F0F480FFE70398B0F5805F00F03C
:101CE000EE80FFE70398B0F5005F00F0E880FFE7C3
:101CF0000398B0F5804F00F0E280FFE70398B0F55D
:101D0000004F00F0DC80FFE70398B0F5803F00F063
:101D1000D680FFE70398B0F5003F00F0D080FFE7E2
:101D20000398B0F5802F00F0CA80FFE70398B0F564
:101D3000002F00F0C480FFE70398B0F5801F00F08B
:101D4000BE80FFE70398B0F5001F00F0B880FFE702
:101D50000398B0F5800F00F0B280FFE70398B0F56C
:101D6000000F00F0AC80FFE70398B0F1807F00F037
:101D7000A680FFE70398B0F1007F00F0A080FFE7A6
:101D80000398B0F1806F00F09A80FFE70398B0F1FC
:101D9000006F00F09480FFE703980121C1F2000179
:101DA000884200F08C80FFE703980221C1F2000115
:101DB000884200F08480FFE703980421C1F200010B
:101DC00088427CD0FFE703980821C1F200018842D5
:101DD00075D0FFE703981021C1F2000188426ED050
:101DE000FFE703982021C1F20001884267D0FFE796
:101DF00003984021C1F20001884260D0FFE70398B8
:101E00008021C1F20001884259D0FFE7039840F2D7
:101E10000011C1F20001884251D0FFE7039840F25F
:101E20000021C1F20001884249D0FFE7039840F247
:101E30000041C1F20001884241D0FFE7039840F61B
:101E40000001C1F20001884239D0FFE70398B0F1E8
:101E5000102F34D0FFE7039842F20001C1F20001D5
:101E600088422CD0FFE7039844F20001C1F2000140
:101E7000884224D0FFE7039848F20001C1F2000134
:101E800088421CD0FFE703980021C1F2010188427B
:101E900015D0FFE703980021C1F2020188420ED05D
:101EA000FFE703980021C1F20401884207D0FFE751
:101EB00003980021C1F20801884201D1FFE707E041
:101EC00044F2BC10C0F6000040F2B711FEF7B6F9BC
:101ED0009DF80F00C006002807D5FFE740F200403C
:101EE000C4F202000068019005E00020C4F2020084
:101EF00000680190FFE701980399084204D0FFE7CA
:101F000001208DF80B0003E000208DF80B00FFE7A7
:101F10009DF80B0004B0704784B0039000208DF84A
:101F20000B0001900398012800F02F81FFE7039830
:101F3000022800F02A81FFE70398042800F0258199
:101F4000FFE70398082800F02081FFE70398102896
:101F500000F01B81FFE70398202800F01681FFE7BF
:101F60000398402800F01181FFE70398802800F0D3
:101F70000C81FFE70398B0F5807F00F00681FFE752
:101F80000398B0F5007F00F00081FFE70398B0F5FB
:101F9000806F00F0FA80FFE70398B0F5006F00F063
:101FA000F480FFE70398B0F5805F00F0EE80FFE774
:101FB0000398B0F5005F00F0E880FFE70398B0F504
:101FC000804F00F0E280FFE70398B0F5004F00F08B
:101FD000DC80FFE70398B0F5803F00F0D680FFE794
:101FE0000398B0F5003F00F0D080FFE70398B0F50C
:101FF000802F00F0CA80FFE70398B0F5002F00F0B3
:10200000C480FFE70398B0F5801F00F0BE80FFE7B3
:102010000398B0F5001F00F0B880FFE70398B0F513
:10202000800F00F0B280FFE70398B0F5000F00F0DA
:10203000AC80FFE70398B0F1807F00F0A680FFE757
:102040000398B0F1007F00F0A080FFE70398B0F1A3
:10205000806F00F09A80FFE70398B0F1006F00F006
:102060009480FFE703980121C1F20001884200F04B
:102070008C80FFE703980221C1F20001884200F042
:102080008480FFE703980421C1F2000188427CD0DC
:10209000FFE703980821C1F20001884275D0FFE7ED
:1020A00003981021C1F2000188426ED0FFE7039827
:1020B0002021C1F20001884267D0FFE70398402148
:1020C000C1F20001884260D0FFE703988021C1F28D
:1020D0000001884259D0FFE7039840F20011C1F295
:1020E0000001884251D0FFE7039840F20021C1F27D
:1020F0000001884249D0FFE7039840F20041C1F255
:102100000001884241D0FFE7039840F60001C1F288
:102110000001884239D0FFE70398B0F1102F34D086
:10212000FFE7039842F20001C1F2000188422CD07F
:10213000FFE7039844F20001C1F20001884224D075
:10214000FFE7039848F20001C1F2000188421CD069
:10215000FFE703980021C1F20101884215D0FFE793
:1021600003980021C1F2020188420ED0FFE70398D4
:102170000021C1F20401884207D0FFE70398002143
:10218000C1F20801884201D1FFE707E044F2BC1028
:10219000C0F6000040F25921FEF750F89DF80F00FC
:1021A000C006002807D5FFE740F20040C4F2020055
:1021B0000068019005E00020C4F202000068019070
:1021C000FFE701980399084204D0FFE701208DF84A
:1021D0000B0003E000208DF80B00FFE79DF80B00DB
:1021E00004B0704782B001909DF8070010F0F00F26
:1021F00007D0FFE7BDF806004EF6F071084204D1A3
:10220000FFE7019808B1FFE707E044F2BC10C0F611
:10221000000040F2AF21FEF711F89DF80700C0065C
:10222000002807D5FFE7019840F20441C4F20201FB
:10223000086005E001980421C4F202010860FFE78C
:1022400002B0704784B046F20041C4F2000103912D
:10225000029000208DF8070000900398884208D073
:10226000FFE7039846F60001C4F20001884201D15D
:10227000FFE706E044F22820C0F600009F21FDF7AA
:10228000DDFF0298807928B1FFE702988079012864
:1022900001D1FFE706E044F22820C0F60000A021AB
:1022A000FDF7CCFF0298C07928B1FFE70298C0790A
:1022B000012801D1FFE706E044F22820C0F6000023
:1022C000A121FDF7BBFF0298007A28B1FFE7029831
:1022D000007A012801D1FFE706E044F22820C0F689
:1022E0000000A221FDF7AAFF0298407A28B1FFE77B
:1022F0000298407A012801D1FFE706E044F2282045
:10230000C0F60000A321FDF799FF0298807A28B15A
:10231000FFE70298807A012801D1FFE706E044F246
:102320002820C0F60000A421FDF788FF0298C07A9B
:1023300028B1FFE70298C07A012801D1FFE706E043
:1023400044F22820C0F60000A521FDF777FF02988F
:10235000807878B1FFE70298807801280AD0FFE7FB
:1023600002988078022805D0FFE702988078032839
:1023700001D1FFE706E044F22820C0F60000A621C4
:10238000FDF75CFF0298C07878B1FFE70298C0784B
:1023900001280AD0FFE70298C078022805D0FFE79D
:1023A0000298C078032801D1FFE706E044F2282014
:1023B000C0F60000A721FDF741FF029800790F2821
:1023C00001DCFFE706E044F22820C0F60000A82167
:1023D000FDF734FF02984079072801DCFFE706E0AB
:1023E00044F22820C0F60000A921FDF727FF02983B
:1023F0000088012807DBFFE702980088B0F5806FAE
:1024000001DCFFE706E044F22820C0F60000AA2124
:10241000FDF714FF0398016821F0020101600398A1
:10242000016841F001010160FFE703984168002065
:10243000C90741B9FFE700994FF6FF72881A914228
:1024400018BF0120FFE7C00720B1FFE70098013067
:102450000090EAE703984068C00720B9FFE7002032
:102460008DF80700A2E002988079012806D1FFE7E5
:102470000398016841F08001016005E0039801685C
:1024800021F080010160FFE70298C079012806D1A0
:10249000FFE70398016841F04001016005E00398FF
:1024A000016821F040010160FFE70298007A0128ED
:1024B00006D1FFE70398016841F02001016005E0C3
:1024C0000398016821F020010160FFE70298407A3B
:1024D000012806D1FFE70398016841F0100101606F
:1024E00005E00398016821F010010160FFE7029800
:1024F000807A012806D1FFE70398016841F00801BE
:10250000016005E00398016821F008010160FFE720
:102510000298C07A012806D1FFE70398016841F0CC
:102520000401016005E00398016821F004010160E5
:10253000FFE702988178C278037990F805C089078F
:1025400041EA026141EA034141EA0C510088013845
:1025500008430399C8610398016821F001010160F3
:1025600000200090FFE7039841680020C90741B1AF
:10257000FFE700994FF6FF72881A914218BF0120B9
:10258000FFE7C00720B1FFE7009801300090EAE7BD
:1025900003984068C00720B1FFE700208DF80700CE
:1025A00003E001208DF80700FFE7FFE704B0704764
:1025B00082B00190002000900198807A0D2801DC03
:1025C000FFE707E044F22820C0F600004FF49471C2
:1025D000FDF734FE0198C07A28B1FFE70198C07A70
:1025E000012801D1FFE707E044F22820C0F60000EF
:1025F00040F22911FDF722FE0198007B28B1FFE788
:102600000198007B012801D1FFE707E044F2282070
:10261000C0F600004FF49571FDF710FE0198008997
:1026200028B1FFE701980089012801D1FFE707E001
:1026300044F22820C0F6000040F22B11FDF7FEFD09
:102640000198407B28B1FFE70198407B012801D128
:10265000FFE707E044F22820C0F600004FF496712F
:10266000FDF7ECFD0198807A012101FA00F000905D
:1026700046F20060C4F20000016841F0010101600F
:10268000009846F21C61C4F200010A6822EA0000C8
:1026900008600198007B10BBFFE7009846F20C61D0
:1026A000C4F200010A6822EA000008600198C188AB
:1026B000428842EA0141807A46F24062C4F2000256
:1026C00042F8301001988188028842EA0141807AFC
:1026D00046F24462C4F2000242F83010FFE701986B
:1026E000007B012821D1FFE7009846F20C61C4F27B
:1026F00000010A681043086001980188428842EA94
:102700000141807A46F24062C4F2000242F8301081
:1027100001988188C28842EA0141807A46F2446287
:10272000C4F2000242F83010FFE70198C07A50B9B5
:10273000FFE7009846F20461C4F200010A6822EA49
:102740000000086008E0009846F20461C4F200014D
:102750000A6810430860FFE70198008950B9FFE755
:10276000009846F21461C4F200010A6822EA0000EF
:102770000860FFE701980089012809D1FFE7009868
:1027800046F21461C4F200010A6810430860FFE7D2
:102790000198407B012809D1FFE7009846F21C61AF
:1027A000C4F200010A6810430860FFE746F20060C7
:1027B000C4F20000016821F00101016002B070471D
:1027C00084B046F20040C4F20000039040F2AC0135
:1027D000C2F20001029100218DF807100399814295
:1027E00008D0FFE7039846F60001C4F200018842D2
:1027F00001D1FFE707E044F22820C0F6000040F2D4
:102800000721FDF71BFD0298007A28B1FFE7029827
:10281000007A042801D1FFE707E044F22820C0F63F
:1028200000004FF40271FDF709FD0298407A28B1CB
:10283000FFE70298407A022801D1FFE707E044F25F
:102840002820C0F6000040F20921FDF7F7FC0298AD
:10285000807A082801DCFFE707E044F22820C0F670
:10286000000040F20A21FDF7E9FC0398806840016E
:10287000002804D5FFE700208DF8070019E0039831
:1028800080680001002804D5FFE701208DF80700CB
:102890000EE003988068C000002804D5FFE70220FE
:1028A0008DF8070003E004208DF80700FFE7FFE73D
:1028B000FFE79DF80700042800F08E80FFE70398EB
:1028C0009DF8071000EB0110D0F8801101F0010114
:1028D000C0F880110298007A00BBFFE702980068F8
:1028E0000021B1EBD02F01D1FFE707E044F228200F
:1028F000C0F600004FF40971FDF7A0FC02980168D2
:10290000407A40EA415003999DF8072001EB0211FB
:10291000D1F880211043C1F8800121E0029840687D
:102920000021B1EB507F01D1FFE707E044F22820FE
:10293000C0F6000040F22A21FDF780FC02984168B1
:10294000027A42EAC101407A084303999DF80720C0
:1029500001EB0211D1F880211043C1F88001FFE79B
:102960000298817A01F00F01817203989DF8071097
:1029700000EB0110D0F8841121F00F01C0F8841190
:102980000298807A03999DF8072001EB0211D1F893
:1029900084211043C1F884010298D0F80B000399F8
:1029A0009DF8072001EB0211C1F888010298D0F8C8
:1029B0000F0003999DF8072001EB0211C1F88C016B
:1029C00003989DF8071000EB0110D0F8801141F03A
:1029D0000101C0F88011FFE79DF8070004B07047BF
:1029E00084B046F20041C4F2000103918DF80B005F
:1029F000002001900398884208D0FFE7039846F62C
:102A00000001C4F20001884201D1FFE707E044F26F
:102A10002820C0F6000040F25221FDF70FFC9DF87F
:102A20000B00022801DCFFE707E044F22820C0F693
:102A3000000040F25321FDF701FC9DF80B0030B17E
:102A4000FFE701280BD0FFE7022811D018E0039818
:102A500080680321C0F200410840019013E0039810
:102A6000806840F20031C0F60001084001900AE0A1
:102A7000039880680021C1F203010840019002E040
:102A800000200190FFE7019830B3FFE70121C0F279
:102A90000041884223D0FFE70321C0F20041884271
:102AA00026D0FFE740F20011C0F60001884219D09D
:102AB000FFE740F20031C0F6000188421BD0FFE77B
:102AC0000021C1F2010188420FD0FFE70021C1F2CD
:102AD0000301884212D014E00220019014E000208B
:102AE000019011E0002001900EE0002001900BE029
:102AF0000120019008E00120019005E001200190F3
:102B000002E000200190FFE79DF8040004B0704748
:102B100084B046F20040C4F20000039000218DF81A
:102B20000B1040F29401C2F200010191039981421D
:102B300008D0FFE7039846F60001C4F2000188427E
:102B400001D1FFE707E044F22820C0F6000040F280
:102B5000A221FDF773FB9DF80B0028B1FFE79DF85C
:102B60000B00012801D1FFE707E044F22820C0F65E
:102B7000000040F2A321FDF761FB03989DF80B10C4
:102B800000EB0110D0F8B00100F0040001990872C8
:102B90000198007A58B9FFE703989DF80B1000EBF5
:102BA0000110D0F8B001400D019908600AE00398C7
:102BB0009DF80B1000EB0110D0F8B001C00801998E
:102BC0004860FFE703989DF80B1000EB0110D0F868
:102BD000B00100F002000199487203989DF80B10B3
:102BE00000EB0110D0F8B40100F00F0001998872D9
:102BF00003989DF80B1000EB0110D0F8B401000A07
:102C00000199C87403989DF80B1000EB0110D0F8DF
:102C1000B8010199C87203989DF80B1000EB0110E0
:102C2000D0F8B801000A0199087303989DF80B10B9
:102C300000EB0110D0F8B801000C0199487303981B
:102C40009DF80B1000EB0110D0F8B801000E0199AF
:102C5000887303989DF80B1000EB0110D0F8BC01AD
:102C60000199C87303989DF80B1000EB0110D0F880
:102C7000BC01000A0199087403989DF80B1000EB41
:102C80000110D0F8BC01000C0199487403989DF81C
:102C90000B1000EB0110D0F8BC01000E01998874F4
:102CA0009DF80B0030B9FFE70398C16841F020019F
:102CB000C16005E00398016941F020010161FFE76F
:102CC00004B0704784B046F20040C4F200000390A4
:102CD0000221029101218DF807100399814208D049
:102CE000FFE7039846F60001C4F20001884201D1D3
:102CF000FFE707E044F22820C0F6000040F2EE3182
:102D0000FDF79CFA029801283BD0FFE702980228C1
:102D100037D0FFE70298042833D0FFE7029808284D
:102D20002FD0FFE7029810282BD0FFE70298202829
:102D300027D0FFE70298402823D0FFE70298B0F59C
:102D4000807F1ED0FFE70298B0F5007F19D0FFE723
:102D50000298B0F5806F14D0FFE70298B0F5006FCD
:102D60000FD0FFE70298B0F5004F0AD0FFE70298B6
:102D7000B0F5803F05D0FFE70298B0F5003F01D1E4
:102D8000FFE707E044F22820C0F6000040F2EF31F0
:102D9000FDF754FA9DF8070028B1FFE79DF80700FA
:102DA000012801D1FFE707E044F22820C0F6000027
:102DB0004FF47C71FDF742FA9DF8070030B1FFE750
:102DC000029803994A691043486106E00298039902
:102DD0004A6922EA00004861FFE704B0704700BF7B
:102DE00080B584B046F20041C4F200010391029024
:102DF00000208DF807000398884208D0FFE7039869
:102E000046F60001C4F20001884201D1FFE707E065
:102E100044F22820C0F6000040F2B741FDF70EFA58
:102E2000029801283BD0FFE70298022837D0FFE73D
:102E30000298042833D0FFE7029808282FD0FFE734
:102E4000029810282BD0FFE70298202827D0FFE710
:102E50000298402823D0FFE70298B0F5807F1ED06B
:102E6000FFE70298B0F5007F19D0FFE70298B0F5B0
:102E7000806F14D0FFE70298B0F5006F0FD0FFE726
:102E80000298B0F5004F0AD0FFE70298B0F5803FF6
:102E900005D0FFE70298B0F5003F01D1FFE707E05A
:102EA00044F22820C0F600004FF49761FDF7C6F900
:102EB000039840690299084200F0AB80FFE702984E
:102EC00001282ED0FFE7022836D0FFE704283BD0A8
:102ED000FFE7082840D0FFE7102845D0FFE720286B
:102EE0004AD0FFE740284FD0FFE7B0F5807F63D09E
:102EF000FFE7B0F5007F67D0FFE7B0F5806F6BD0DC
:102F0000FFE7B0F5006F6FD0FFE7B0F5004F73D06B
:102F1000FFE7B0F5803F3FD0FFE7B0F5003F43D07B
:102F200072E00398806840F20111C0F2010100F0E4
:102F300079F88DF807006BE00398C068032100F072
:102F400071F88DF8070063E00398C068082100F06D
:102F500069F88DF807005BE00398C068102100F065
:102F600061F88DF8070053E003980069032100F031
:102F700059F88DF807004BE003980069082100F02C
:102F800051F88DF8070043E003980069102100F024
:102F900049F88DF807003BE003984068082100F0ED
:102FA00041F88DF8070033E003984068102100F0E5
:102FB00039F88DF807002BE003988069012100F0B3
:102FC00031F88DF8070023E003988069022100F0B2
:102FD00029F88DF807001BE003988069042100F0B0
:102FE00021F88DF8070013E003988069702100F044
:102FF00019F88DF807000BE003984068042100F0F1
:1030000011F88DF8070003E000208DF80700FFE7B6
:1030100003E000208DF80700FFE79DF8070004B0EB
:1030200080BD00BF83B00290019100208DF80300A5
:1030300002980199084204D0FFE701208DF80300AF
:1030400003E000208DF80300FFE79DF8030003B0C4
:10305000704700BF82B046F20041C4F20001019106
:1030600000900198884208D0FFE7019846F60001D9
:10307000C4F20001884201D1FFE707E044F22820B2
:10308000C0F6000040F21D51FDF7D8F80098012865
:1030900033D0FFE7009804282FD0FFE700980828D6
:1030A0002BD0FFE70098202827D0FFE70098402882
:1030B00023D0FFE70098B0F5807F1ED0FFE700988F
:1030C000B0F5007F19D0FFE70098B0F5806F14D0FD
:1030D000FFE70098B0F5006F0FD0FFE70098B0F55C
:1030E000004F0AD0FFE70098B0F5803F05D0FFE71A
:1030F0000098B0F5003F01D1FFE707E044F2282037
:10310000C0F6000040F21E51FDF798F80098012823
:1031100028D0FFE704282CD0FFE708282DD0FFE7B0
:1031200020282ED0FFE740282FD0FFE7B0F5807F82
:1031300037D0FFE7B0F5007F37D0FFE7B0F5806FFD
:1031400037D0FFE7B0F5006F37D0FFE7B0F5004F9D
:103150003AD0FFE7B0F5803F1BD0FFE7B0F5003F66
:103160001BD038E0019840F20111C0F201018160EA
:1031700032E001980821C1602EE001981021C16061
:103180002AE001980821016126E0019810210161DF
:1031900022E00198082141601EE001981021416061
:1031A0001AE001980421416016E001980421416071
:1031B00012E00198042141600EE001980021816134
:1031C00001980421416007E0019800218161019884
:1031D0000421416000E0FFE702B0704740F20A00BE
:1031E000C2F20000018801310180704780B582B0D1
:1031F0004FF47A70ADF80600FDF7B4F9BDF806009B
:103200004AF20021C0F24A41B1FBF0F04FF0FF3129
:1032100001EBD0004EF21401CEF2000108604EF234
:103220001800CEF20000002101604EF21000CEF234
:103230000000016861F00401016002B080BD00BFC0
:1032400082B040F20A00C2F20000019040F2340065
:10325000C2F20000009001980088002030B9FFE71A
:103260000098018841F001010180FFE70198008882
:10327000C00730B9FFE70098018841F002010180E2
:10328000FFE7019800884CF6CD41CCF6CC41A0FB7D
:103290000112910801EB8101401A30B9FFE7009853
:1032A000018841F004010180FFE7019800884CF695
:1032B000CD41CCF6CC41A0FB0112D10801EB81013C
:1032C000A0EB410030B9FFE70098018841F0080108
:1032D0000180FFE7019800884CF6CD41CCF6CC4147
:1032E000A0FB0112110901EB8101A0EB810030B9B3
:1032F000FFE70098018841F010010180FFE7019885
:10330000008848F21F51C5F2EB11A0FB0112110910
:10331000322201FB120030B9FFE70098018841F02A
:1033200020010180FFE70198008848F21F51C5F293
:10333000EB11A0FB01125109642201FB120030B90C
:10334000FFE70098018841F040010180FFE7019804
:10335000008848F21F51C5F2EB11A0FB0112910940
:10336000C82201FB120030B9FFE70098018841F044
:1033700080010180FFE70198008844F6D351C1F233
:103380006201A0FB011251094FF4FA7201FB120015
:1033900030B9FFE70098018841F480710180FFE7B0
:1033A0000198008844F6D351C1F26201A0FB0112DA
:1033B00091094FF47A7201FB120030B9FFE70098CF
:1033C000018841F400710180FFE70198008844F60C
:1033D000D351C1F26201A0FB0112D1094FF4FA628C
:1033E00001FB120030B9FFE70098018841F48061C9
:1033F0000180FFE70198008841F25971CDF2B711C1
:10340000A0FB0112110B41F2883201FB120030B90E
:10341000FFE70098018841F480510180FFE702B086
:10342000704700BF80B582B040F23400C2F20000A5
:10343000019040F23800C2F200000090019800882C
:10344000C00748B1FFE700980068804701980188ED
:1034500021F001010180FFE7019800884008C007C2
:1034600048B1FFE70098406880470198018821F043
:1034700002010180FFE7019800888008C00748B179
:10348000FFE70098806880470198018821F00401D7
:103490000180FFE701980088C008C00748B1FFE736
:1034A0000098C06880470198018821F008010180D8
:1034B000FFE7019800880009C00748B1FFE70098BE
:1034C000006980470198018821F010010180FFE721
:1034D000019800884009C00748B1FFE7009880685C
:1034E00080470198018821F020010180FFE70198C1
:1034F00000888009C00748B1FFE7009880698047CD
:103500000198018821F040010180FFE701980088BF
:10351000C009C00748B1FFE70098C069804701981B
:10352000018821F080010180FFE701980088000AEE
:10353000C00748B1FFE70098006A804701980188FA
:1035400021F480710180FFE701980088400AC007DC
:1035500048B1FFE70098406A80470198018821F44C
:1035600000710180FFE701980088800AC00748B118
:10357000FFE70098806A80470198018821F4806104
:103580000180FFE701980088000BC00748B1FFE702
:103590000098006B80470198018821F480510180D8
:1035A000FFE702B080BD00BF82B040F20A00C2F265
:1035B0000000019040F20C00C2F20000009001985F
:1035C0000088002020B9FFE7009801210170FFE783
:1035D000019800884CF6CD41CCF6CC41A0FB0112FD
:1035E000910801EB8101401A20B9FFE70098012101
:1035F0004170FFE7019800884CF6CD41CCF6CC41F4
:10360000A0FB0112D10801EB8101A0EB410020B920
:10361000FFE7009801218170FFE70198008848F2D8
:103620001F51C5F2EB11A0FB01121109322201FB5F
:10363000120020B9FFE700980121C170FFE701984F
:10364000008848F21F51C5F2EB11A0FB011251098D
:10365000642201FB120020B9FFE7009801210171EB
:10366000FFE70198008844F6D351C1F26201A0FB44
:10367000011251094FF4FA7201FB120020B9FFE761
:10368000009801214171FFE70198008844F6D35169
:10369000C1F26201A0FB011291094FF47A7201FBA1
:1036A000120020B9FFE7009801218171FFE701981E
:1036B000008841F25971CDF2B711A0FB0112110B34
:1036C00041F2883201FB120020B9FFE70098012186
:1036D000C171FFE702B0704781B040F20C00C2F246
:1036E00000000090009843F24971C0F60001416269
:1036F000009843F24D71C0F60001C161009843F695
:103700003901C0F600014161009843F63D01C0F661
:103710000001C160009843F6D501C0F600010162C6
:10372000009843F6D901C0F600018161009843F684
:10373000DD01C0F600010161009843F6E101C0F629
:103740000001816001B07047704700BF10B540F2C2
:103750006C00C2F200000088C00740B9FFE740F2E9
:10376000AC00C2F2000040F20131016007E040F21B
:10377000AC00C2F2000040F201210160FFE740F21C
:103780006C00C2F2000001880131018040F20000AB
:10379000C2F20000006800F0C5F908B1FFE7FFE7DA
:1037A00040F20A00C2F20000008840F26E01C2F24C
:1037B00000010880FFE740F29000C2F200000078AC
:1037C00040F29101C2F2000109780843C00758BBDA
:1037D000FFE740F20C00C2F200008068804740F230
:1037E0000A00C2F20000008840F26E01C2F200013D
:1037F00009880531884216DBFFE740F2C400C2F2B7
:10380000000040F27801C2F2000141601C24C4F2C1
:1038100002042046FDF732FF20460821FEF7AAF9F0
:1038200000F054FC01E0C6E7FFE740F20C00C2F2F2
:103830000000C068804710BD704700BF10B540F25F
:103840009000C2F200000078C007E8B1FFE740F244
:103850000000C2F20000006840F2C401C2F20001A0
:1038600048601C24C4F202042046FDF707FF2046EE
:103870000821FEF77FF900F029FC40F29000C2F227
:10388000000000210170FFE740F29100C2F2000049
:103890000078C007E8B1FFE740F20000C2F2000084
:1038A000006840F2C401C2F2000148601C24C4F266
:1038B00002042046FDF7E2FE20460821FEF75AF9F1
:1038C00000F004FC40F29100C2F2000000210170FF
:1038D000FFE710BD704700BF704700BF704700BFD3
:1038E00081B040F2A800C2F200000078C0070028B2
:1038F0005DD0FFE740F29400C2F20000006840F2A1
:103900000121884210D1FFE740F20000C2F200001E
:1039100040F28001C2F20001016040F29000C2F268
:103920000000012101701AE040F29400C2F2000090
:10393000006840F20131884210D1FFE740F20000F8
:10394000C2F2000040F28801C2F20001016040F2C0
:103950009100C2F2000001210170FFE7FFE70020A3
:103960008DF80300FFE79DF80300072817DCFFE749
:103970009DF8030040F29401C2F200010144C97AAB
:1039800040F20002C2F200021268C0F107001154B6
:10399000FFE79DF8030001308DF80300E3E740F2F4
:1039A000A800C2F20000002101700170FFE701B021
:1039B000704700BF70B58CB000268DF82F600720CF
:1039C0008DF82E0008208DF82D00ADF82A008DF816
:1039D00029600420FDF74AF84FF00070FDF78AF8DF
:1039E0004FF48050ADF8240003208DF826001820F5
:1039F0008DF8270040F60004C4F2010409AD20460A
:103A00002946FCF7DBFD4FF40060ADF824004820A8
:103A10008DF8270020462946FCF7D0FD8DF81E6062
:103A200001248DF81F408DF820608DF821408DF81D
:103A300022608DF823609DF829008DF81A009DF80A
:103A40002F008DF81B009DF82D008DF81C009DF8AF
:103A50002E008DF81D00BDF82A00ADF8180006A84C
:103A6000FEF7F0FB8DF812608DF813608DF814608E
:103A70008DF813604FF6FF70ADF80C004DF6FF7136
:103A8000ADF80E10ADF8080044F22000ADF80A00C1
:103A9000ADF810608DF8154002A8FEF789FDFFF71C
:103AA00011F914208DF8040002208DF805008DF81E
:103AB00006608DF8074001A8FCF7D0FC0CB070BD83
:103AC00080B50220FFF78CF901280CD1FFE7022016
:103AD000FFF7C0FAFFF71CF840F2A800C2F200009E
:103AE00001210170FFE70420FFF77AF901280CD1CA
:103AF000FFE70420FFF7AEFAFFF70AF840F2A8004C
:103B0000C2F2000001210170FFE74FF40040FFF70F
:103B100067F9012805D1FFE74FF40040FFF79AFA53
:103B2000FFE780BD80B584B0029000208DF80700CB
:103B30008DF80600ADF802009DF8060038B9FFE7E1
:103B400040F2AC00C2F200000221417206E040F2F5
:103B5000AC00C2F2000000214172FFE740F2AC006D
:103B6000C2F200000021416001729DF807208272BC
:103B7000ADF80210FFE7BDF802009DF8071088427B
:103B800011DAFFE70298BDF80210405C40F2AC0287
:103B9000C2F200021144C872FFE7BDF80200013012
:103BA000ADF80200E7E7FEF70BFE8DF80500FFE732
:103BB0009DF80500FEF714FF002148B9FFE7BDF8A6
:103BC000020040F6FF7200219042B8BF0121FFE7DA
:103BD000C80730B1FFE7BDF802000130ADF80200C0
:103BE000E6E7BDF8020040F6FF71884204DBFFE71C
:103BF00001208DF80F0003E000208DF80F00FFE793
:103C00009DF80F0004B080BD80B582B00190009196
:103C1000FFE7FDF785FB08B9FFE7FAE79DF8040029
:103C2000FDF7F6FAFFE7FDF77BFB08B9FFE7FAE7D8
:103C3000019802B080BD00BFB0B588B04FF4E1304C
:103C4000079044F20400FCF711FF4FF40070ADF848
:103C5000180003208DF81A0018208DF81B0040F67C
:103C60000004C4F2010406AD20462946FCF7A6FC78
:103C700025208DF8040002208DF805008DF806003F
:103C800001208DF8070001A8FCF7E8FB4FF48060E5
:103C9000ADF8180004208DF81B0020462946FCF7DB
:103CA0008DFC079802900020ADF80C00ADF80E00D6
:103CB000ADF81000ADF814000C20ADF8120043F67A
:103CC0000004C4F2010402A92046FCF757FF204675
:103CD000FDF73AF92046FDF727FA2046FDF7DAF816
:103CE00008B0B0BD70B588B04FF4E130079008203F
:103CF000FCF7BCFE4FF48020FCF7FCFE4FF4806024
:103D0000ADF8180001268DF81A6018208DF81B00F8
:103D100040F60044C4F2010406AD20462946FCF7F3
:103D20004DFC4FF40060ADF8180004208DF81B0026
:103D300020462946FCF742FC27208DF8040002208B
:103D40008DF805008DF806008DF8076001A8FCF7D6
:103D500085FB079802900020ADF80C00ADF80E002E
:103D6000ADF81000ADF814000C20ADF8120044F6C8
:103D70000004C4F2000402A92046FCF7FFFE20461E
:103D8000FDF7D2F92046FDF7DFF82046FDF782F86F
:103D900008B070BD80B543F60000C4F20100FDF725
:103DA00075FB98B1FFE743F60000C4F20100FDF790
:103DB0007FFA40F2C000C2F20000012101705820D9
:103DC000C4F202000021FDF7A9FDFFE780BD00BF9E
:103DD00080B544F60000C4F20000FDF757FB38B18F
:103DE000FFE744F60000C4F20000FDF761FAFFE7C8
:103DF00080BD00BF80B54FF40030FDF727FF0128DC
:103E00000BD1FFE75820C4F202000021FDF786FD28
:103E10004FF40030FEF7E6F9FFE780BD80B54FF4C0
:103E20000050FEF779F801280BD1FFE74420C4F2D7
:103E300002000021FDF772FD4FF40050FEF7D2F9A9
:103E4000FFE780BD80B54FF40070FDF7FFFE01284D
:103E50000BD1FFE73020C4F202000021FDF75EFD28
:103E60004FF40070FEF7BEF9FFE780BD80B520205B
:103E7000FEF752F801280AD1FFE71C20C4F2020025
:103E80000021FDF74BFD2020FEF7ACF9FFE780BDD8
:103E900080B586B044F60003C4F2000305938DF8A4
:103EA000130003208DF812008DF8111003920820E2
:103EB000ADF80A00059843F60001C4F201018842FA
:103EC00010D0FFE7059844F20041C4F20001884297
:103ED00008D0FFE7059844F60001C4F200018842CB
:103EE00004D1FFE70120FCF77DFD0CE0059843F6C7
:103EF0000001C4F20101884204D1FFE70220FCF76F
:103F000071FDFFE7FFE7059843F60001C4F20101E8
:103F100088421BD1FFE79DF8130040B9FFE70E2050
:103F20008DF800004420C4F2020001900DE09DF8DD
:103F30001300012808D1FFE70F208DF8000058205A
:103F4000C4F202000190FFE7FFE76DE0059844F23C
:103F50000041C4F2000188421BD1FFE79DF8130025
:103F600040B9FFE711208DF800008020C4F2020064
:103F700001900DE09DF81300012808D1FFE7102003
:103F80008DF800006C20C4F202000190FFE7FFE70B
:103F900049E0059844F60001C4F2000188421BD1B3
:103FA000FFE79DF8130040B9FFE70C208DF80000F3
:103FB0001C20C4F2020001900DE09DF813000128BE
:103FC00008D1FFE70D208DF800003020C4F2020078
:103FD0000190FFE7FFE725E0059844F60041C4F2B1
:103FE000000188421DD1FFE79DF8130048B9FFE7A3
:103FF0003B208DF8000040F25840C4F202000190CE
:104000000EE09DF81300012809D1FFE73A208DF852
:10401000000040F23040C4F202000190FFE7FFE7E9
:10402000FFE7FFE7FFE7FFE79DF812008DF80100CB
:104030009DF811008DF8020001208DF803006846FC
:10404000FCF70CFA0198FDF7F5FC0598043040F2F6
:10405000C401C2F200010860039848600020886033
:10406000BDF80A20CA60086180224A618861C8617F
:1040700020220A624FF480524A6288629DF813003F
:10408000012807D1FFE740F2C400C2F2000000217E
:10409000816006E040F2C400C2F20000102181609D
:1040A000FFE70198FDF7EAFA9DF81300012805D112
:1040B000FFE701980121FDF731FC04E001980021A0
:1040C000FDF72CFCFFE706B080BD00BF80B584B0D3
:1040D00044F60000C4F2000003901C20C4F2020069
:1040E000029001208DF807000820ADF80400039825
:1040F00043F60001C4F20101884205D1FFE75820D0
:10410000C4F2020002902AE0039844F20041C4F293
:104110000001884205D1FFE78020C4F2020002902E
:104120001CE0039844F60001C4F20001884205D166
:10413000FFE71C20C4F2020002900EE0039844F650
:104140000041C4F20001884206D1FFE740F2584026
:10415000C4F202000290FFE7FFE7FFE7FFE79DF8E8
:104160000700C00750B1FFE70298BDF80410FDF743
:1041700001FD02980121FDF7D1FB04E00298002126
:10418000FDF7CCFBFFE704B080BD02E008C8121FBA
:1041900008C1002AFAD170477047002001E001C130
:1041A000121F002AFBD17047000000000102030427
:1041B0000102030406070809020406082E2E2F53E5
:1041C000544D3332463130785F46574C69622F7315
:1041D00072632F73746D3332663130785F646D6152
:1041E0002E63002E2E2F53544D3332463130785FDC
:1041F00046574C69622F7372632F73746D33326646
:104200003130785F7263632E63002E2E2F53544D2E
:104210003332463130785F46574C69622F73726390
:104220002F6D6973632E63002E2E2F53544D33323E
:10423000463130785F46574C69622F7372632F7333
:10424000746D3332663130785F63616E2E63002E99
:104250002E2F53544D3332463130785F46574C69D8
:10426000622F7372632F73746D3332663130785FEF
:104270006770696F2E63002E2E2F53544D333246D4
:104280003130785F46574C69622F7372632F7374B5
:104290006D3332663130785F75736172742E6300EE
:1042A000C042000800000020080000008A41000809
:1042B000C842000808000020F00400009A410008ED
:0842C000700000200000000066
:0400000508000131BD
:00000001FF
